{
  "_format": "hh-sol-artifact-1",
  "contractName": "SimpleStorage",
  "sourceName": "contracts/SimpleStorage.sol",
  "abi": [
    {
      "inputs": [
        {
          "internalType": "string",
          "name": "_ssn",
          "type": "string"
        },
        {
          "internalType": "address",
          "name": "_adminAddress",
          "type": "address"
        },
        {
          "internalType": "string",
          "name": "_meta",
          "type": "string"
        }
      ],
      "name": "addAdmin",
      "outputs": [],
      "stateMutability": "nonpayable",
      "type": "function"
    },
    {
      "inputs": [
        {
          "internalType": "string",
          "name": "_ssn",
          "type": "string"
        },
        {
          "internalType": "address",
          "name": "_doctorAddress",
          "type": "address"
        },
        {
          "internalType": "string",
          "name": "_meta",
          "type": "string"
        }
      ],
      "name": "addDoctor",
      "outputs": [],
      "stateMutability": "nonpayable",
      "type": "function"
    },
    {
      "inputs": [
        {
          "internalType": "string",
          "name": "_ssn",
          "type": "string"
        },
        {
          "internalType": "address",
          "name": "_patientAddress",
          "type": "address"
        },
        {
          "internalType": "address",
          "name": "_doctorAddress",
          "type": "address"
        },
        {
          "internalType": "string",
          "name": "_meta",
          "type": "string"
        }
      ],
      "name": "addPatient",
      "outputs": [],
      "stateMutability": "nonpayable",
      "type": "function"
    },
    {
      "inputs": [
        {
          "internalType": "address",
          "name": "",
          "type": "address"
        }
      ],
      "name": "adminaddressTossn",
      "outputs": [
        {
          "internalType": "string",
          "name": "ssn",
          "type": "string"
        },
        {
          "internalType": "address",
          "name": "account",
          "type": "address"
        },
        {
          "internalType": "string",
          "name": "meta",
          "type": "string"
        }
      ],
      "stateMutability": "view",
      "type": "function"
    },
    {
      "inputs": [
        {
          "internalType": "address",
          "name": "",
          "type": "address"
        }
      ],
      "name": "doctoraddressTossn",
      "outputs": [
        {
          "internalType": "string",
          "name": "ssn",
          "type": "string"
        },
        {
          "internalType": "address",
          "name": "account",
          "type": "address"
        },
        {
          "internalType": "string",
          "name": "meta",
          "type": "string"
        }
      ],
      "stateMutability": "view",
      "type": "function"
    },
    {
      "inputs": [
        {
          "internalType": "address",
          "name": "_adminAddress",
          "type": "address"
        }
      ],
      "name": "getAdmin",
      "outputs": [
        {
          "internalType": "string",
          "name": "",
          "type": "string"
        },
        {
          "internalType": "string",
          "name": "",
          "type": "string"
        }
      ],
      "stateMutability": "view",
      "type": "function"
    },
    {
      "inputs": [
        {
          "internalType": "address",
          "name": "_doctorAddress",
          "type": "address"
        }
      ],
      "name": "getDoctor",
      "outputs": [
        {
          "internalType": "string",
          "name": "",
          "type": "string"
        },
        {
          "internalType": "string",
          "name": "",
          "type": "string"
        }
      ],
      "stateMutability": "view",
      "type": "function"
    },
    {
      "inputs": [
        {
          "internalType": "address",
          "name": "_patientAddress",
          "type": "address"
        }
      ],
      "name": "getPatient",
      "outputs": [
        {
          "internalType": "string",
          "name": "",
          "type": "string"
        },
        {
          "internalType": "address",
          "name": "",
          "type": "address"
        },
        {
          "internalType": "string",
          "name": "",
          "type": "string"
        }
      ],
      "stateMutability": "view",
      "type": "function"
    },
    {
      "inputs": [
        {
          "internalType": "address",
          "name": "",
          "type": "address"
        }
      ],
      "name": "patientaddressTossn",
      "outputs": [
        {
          "internalType": "string",
          "name": "ssn",
          "type": "string"
        },
        {
          "internalType": "address",
          "name": "account",
          "type": "address"
        },
        {
          "internalType": "address",
          "name": "doctor",
          "type": "address"
        },
        {
          "internalType": "string",
          "name": "meta",
          "type": "string"
        }
      ],
      "stateMutability": "view",
      "type": "function"
    }
  ],
  "bytecode": "0x608060405234801561001057600080fd5b50611a6a806100206000396000f3fe608060405234801561001057600080fd5b50600436106100935760003560e01c806364efb22b1161006657806364efb22b1461011d578063b441e12b1461014e578063b5368e2014610181578063efb38703146101b3578063f31545ad146101e557610093565b80631c01ff431461009857806323dde1e8146100b45780632f04e064146100d05780633604ec3f14610101575b600080fd5b6100b260048036038101906100ad9190611498565b610217565b005b6100ce60048036038101906100c99190611498565b6103c6565b005b6100ea60048036038101906100e59190611523565b610575565b6040516100f89291906115cf565b60405180910390f35b61011b60048036038101906101169190611606565b610754565b005b61013760048036038101906101329190611523565b6109ca565b6040516101459291906115cf565b60405180910390f35b61016860048036038101906101639190611523565b610ba9565b60405161017894939291906116b4565b60405180910390f35b61019b60048036038101906101969190611523565b610d29565b6040516101aa93929190611707565b60405180910390f35b6101cd60048036038101906101c89190611523565b610f6a565b6040516101dc93929190611707565b60405180910390f35b6101ff60048036038101906101fa9190611523565b6110c4565b60405161020e93929190611707565b60405180910390f35b61021f61121e565b83816000018190525082816020019073ffffffffffffffffffffffffffffffffffffffff16908173ffffffffffffffffffffffffffffffffffffffff1681525050818160400181905250600081908060018154018082558091505060019003906000526020600020906003020160009091909190915060008201518160000190816102aa9190611962565b5060208201518160010160006101000a81548173ffffffffffffffffffffffffffffffffffffffff021916908373ffffffffffffffffffffffffffffffffffffffff16021790555060408201518160020190816103079190611962565b50505080600160008573ffffffffffffffffffffffffffffffffffffffff1673ffffffffffffffffffffffffffffffffffffffff168152602001908152602001600020600082015181600001908161035f9190611962565b5060208201518160010160006101000a81548173ffffffffffffffffffffffffffffffffffffffff021916908373ffffffffffffffffffffffffffffffffffffffff16021790555060408201518160020190816103bc9190611962565b5090505050505050565b6103ce611255565b83816000018190525082816020019073ffffffffffffffffffffffffffffffffffffffff16908173ffffffffffffffffffffffffffffffffffffffff1681525050818160400181905250600481908060018154018082558091505060019003906000526020600020906003020160009091909190915060008201518160000190816104599190611962565b5060208201518160010160006101000a81548173ffffffffffffffffffffffffffffffffffffffff021916908373ffffffffffffffffffffffffffffffffffffffff16021790555060408201518160020190816104b69190611962565b50505080600560008573ffffffffffffffffffffffffffffffffffffffff1673ffffffffffffffffffffffffffffffffffffffff168152602001908152602001600020600082015181600001908161050e9190611962565b5060208201518160010160006101000a81548173ffffffffffffffffffffffffffffffffffffffff021916908373ffffffffffffffffffffffffffffffffffffffff160217905550604082015181600201908161056b9190611962565b5090505050505050565b6060806000600560008573ffffffffffffffffffffffffffffffffffffffff1673ffffffffffffffffffffffffffffffffffffffff1681526020019081526020016000206040518060600160405290816000820180546105d49061177b565b80601f01602080910402602001604051908101604052809291908181526020018280546106009061177b565b801561064d5780601f106106225761010080835404028352916020019161064d565b820191906000526020600020905b81548152906001019060200180831161063057829003601f168201915b505050505081526020016001820160009054906101000a900473ffffffffffffffffffffffffffffffffffffffff1673ffffffffffffffffffffffffffffffffffffffff1673ffffffffffffffffffffffffffffffffffffffff1681526020016002820180546106bc9061177b565b80601f01602080910402602001604051908101604052809291908181526020018280546106e89061177b565b80156107355780601f1061070a57610100808354040283529160200191610735565b820191906000526020600020905b81548152906001019060200180831161071857829003601f168201915b5050505050815250509050806000015181604001519250925050915091565b61075c61128c565b84816000018190525083816020019073ffffffffffffffffffffffffffffffffffffffff16908173ffffffffffffffffffffffffffffffffffffffff168152505082816040019073ffffffffffffffffffffffffffffffffffffffff16908173ffffffffffffffffffffffffffffffffffffffff16815250508181606001819052506002819080600181540180825580915050600190039060005260206000209060040201600090919091909150600082015181600001908161081f9190611962565b5060208201518160010160006101000a81548173ffffffffffffffffffffffffffffffffffffffff021916908373ffffffffffffffffffffffffffffffffffffffff16021790555060408201518160020160006101000a81548173ffffffffffffffffffffffffffffffffffffffff021916908373ffffffffffffffffffffffffffffffffffffffff16021790555060608201518160030190816108c39190611962565b50505080600360008673ffffffffffffffffffffffffffffffffffffffff1673ffffffffffffffffffffffffffffffffffffffff168152602001908152602001600020600082015181600001908161091b9190611962565b5060208201518160010160006101000a81548173ffffffffffffffffffffffffffffffffffffffff021916908373ffffffffffffffffffffffffffffffffffffffff16021790555060408201518160020160006101000a81548173ffffffffffffffffffffffffffffffffffffffff021916908373ffffffffffffffffffffffffffffffffffffffff16021790555060608201518160030190816109bf9190611962565b509050505050505050565b6060806000600160008573ffffffffffffffffffffffffffffffffffffffff1673ffffffffffffffffffffffffffffffffffffffff168152602001908152602001600020604051806060016040529081600082018054610a299061177b565b80601f0160208091040260200160405190810160405280929190818152602001828054610a559061177b565b8015610aa25780601f10610a7757610100808354040283529160200191610aa2565b820191906000526020600020905b815481529060010190602001808311610a8557829003601f168201915b505050505081526020016001820160009054906101000a900473ffffffffffffffffffffffffffffffffffffffff1673ffffffffffffffffffffffffffffffffffffffff1673ffffffffffffffffffffffffffffffffffffffff168152602001600282018054610b119061177b565b80601f0160208091040260200160405190810160405280929190818152602001828054610b3d9061177b565b8015610b8a5780601f10610b5f57610100808354040283529160200191610b8a565b820191906000526020600020905b815481529060010190602001808311610b6d57829003601f168201915b5050505050815250509050806000015181604001519250925050915091565b6003602052806000526040600020600091509050806000018054610bcc9061177b565b80601f0160208091040260200160405190810160405280929190818152602001828054610bf89061177b565b8015610c455780601f10610c1a57610100808354040283529160200191610c45565b820191906000526020600020905b815481529060010190602001808311610c2857829003601f168201915b5050505050908060010160009054906101000a900473ffffffffffffffffffffffffffffffffffffffff16908060020160009054906101000a900473ffffffffffffffffffffffffffffffffffffffff1690806003018054610ca69061177b565b80601f0160208091040260200160405190810160405280929190818152602001828054610cd29061177b565b8015610d1f5780601f10610cf457610100808354040283529160200191610d1f565b820191906000526020600020905b815481529060010190602001808311610d0257829003601f168201915b5050505050905084565b6060600060606000600360008673ffffffffffffffffffffffffffffffffffffffff1673ffffffffffffffffffffffffffffffffffffffff168152602001908152602001600020604051806080016040529081600082018054610d8b9061177b565b80601f0160208091040260200160405190810160405280929190818152602001828054610db79061177b565b8015610e045780601f10610dd957610100808354040283529160200191610e04565b820191906000526020600020905b815481529060010190602001808311610de757829003601f168201915b505050505081526020016001820160009054906101000a900473ffffffffffffffffffffffffffffffffffffffff1673ffffffffffffffffffffffffffffffffffffffff1673ffffffffffffffffffffffffffffffffffffffff1681526020016002820160009054906101000a900473ffffffffffffffffffffffffffffffffffffffff1673ffffffffffffffffffffffffffffffffffffffff1673ffffffffffffffffffffffffffffffffffffffff168152602001600382018054610ec99061177b565b80601f0160208091040260200160405190810160405280929190818152602001828054610ef59061177b565b8015610f425780601f10610f1757610100808354040283529160200191610f42565b820191906000526020600020905b815481529060010190602001808311610f2557829003601f168201915b5050505050815250509050806000015181604001518260600151935093509350509193909250565b6001602052806000526040600020600091509050806000018054610f8d9061177b565b80601f0160208091040260200160405190810160405280929190818152602001828054610fb99061177b565b80156110065780601f10610fdb57610100808354040283529160200191611006565b820191906000526020600020905b815481529060010190602001808311610fe957829003601f168201915b5050505050908060010160009054906101000a900473ffffffffffffffffffffffffffffffffffffffff16908060020180546110419061177b565b80601f016020809104026020016040519081016040528092919081815260200182805461106d9061177b565b80156110ba5780601f1061108f576101008083540402835291602001916110ba565b820191906000526020600020905b81548152906001019060200180831161109d57829003601f168201915b5050505050905083565b60056020528060005260406000206000915090508060000180546110e79061177b565b80601f01602080910402602001604051908101604052809291908181526020018280546111139061177b565b80156111605780601f1061113557610100808354040283529160200191611160565b820191906000526020600020905b81548152906001019060200180831161114357829003601f168201915b5050505050908060010160009054906101000a900473ffffffffffffffffffffffffffffffffffffffff169080600201805461119b9061177b565b80601f01602080910402602001604051908101604052809291908181526020018280546111c79061177b565b80156112145780601f106111e957610100808354040283529160200191611214565b820191906000526020600020905b8154815290600101906020018083116111f757829003601f168201915b5050505050905083565b604051806060016040528060608152602001600073ffffffffffffffffffffffffffffffffffffffff168152602001606081525090565b604051806060016040528060608152602001600073ffffffffffffffffffffffffffffffffffffffff168152602001606081525090565b604051806080016040528060608152602001600073ffffffffffffffffffffffffffffffffffffffff168152602001600073ffffffffffffffffffffffffffffffffffffffff168152602001606081525090565b6000604051905090565b600080fd5b600080fd5b600080fd5b600080fd5b6000601f19601f8301169050919050565b7f4e487b7100000000000000000000000000000000000000000000000000000000600052604160045260246000fd5b611347826112fe565b810181811067ffffffffffffffff821117156113665761136561130f565b5b80604052505050565b60006113796112e0565b9050611385828261133e565b919050565b600067ffffffffffffffff8211156113a5576113a461130f565b5b6113ae826112fe565b9050602081019050919050565b82818337600083830152505050565b60006113dd6113d88461138a565b61136f565b9050828152602081018484840111156113f9576113f86112f9565b5b6114048482856113bb565b509392505050565b600082601f830112611421576114206112f4565b5b81356114318482602086016113ca565b91505092915050565b600073ffffffffffffffffffffffffffffffffffffffff82169050919050565b60006114658261143a565b9050919050565b6114758161145a565b811461148057600080fd5b50565b6000813590506114928161146c565b92915050565b6000806000606084860312156114b1576114b06112ea565b5b600084013567ffffffffffffffff8111156114cf576114ce6112ef565b5b6114db8682870161140c565b93505060206114ec86828701611483565b925050604084013567ffffffffffffffff81111561150d5761150c6112ef565b5b6115198682870161140c565b9150509250925092565b600060208284031215611539576115386112ea565b5b600061154784828501611483565b91505092915050565b600081519050919050565b600082825260208201905092915050565b60005b8381101561158a57808201518184015260208101905061156f565b60008484015250505050565b60006115a182611550565b6115ab818561155b565b93506115bb81856020860161156c565b6115c4816112fe565b840191505092915050565b600060408201905081810360008301526115e98185611596565b905081810360208301526115fd8184611596565b90509392505050565b600080600080608085870312156116205761161f6112ea565b5b600085013567ffffffffffffffff81111561163e5761163d6112ef565b5b61164a8782880161140c565b945050602061165b87828801611483565b935050604061166c87828801611483565b925050606085013567ffffffffffffffff81111561168d5761168c6112ef565b5b6116998782880161140c565b91505092959194509250565b6116ae8161145a565b82525050565b600060808201905081810360008301526116ce8187611596565b90506116dd60208301866116a5565b6116ea60408301856116a5565b81810360608301526116fc8184611596565b905095945050505050565b600060608201905081810360008301526117218186611596565b905061173060208301856116a5565b81810360408301526117428184611596565b9050949350505050565b7f4e487b7100000000000000000000000000000000000000000000000000000000600052602260045260246000fd5b6000600282049050600182168061179357607f821691505b6020821081036117a6576117a561174c565b5b50919050565b60008190508160005260206000209050919050565b60006020601f8301049050919050565b600082821b905092915050565b60006008830261180e7fffffffffffffffffffffffffffffffffffffffffffffffffffffffffffffffff826117d1565b61181886836117d1565b95508019841693508086168417925050509392505050565b6000819050919050565b6000819050919050565b600061185f61185a61185584611830565b61183a565b611830565b9050919050565b6000819050919050565b61187983611844565b61188d61188582611866565b8484546117de565b825550505050565b600090565b6118a2611895565b6118ad818484611870565b505050565b5b818110156118d1576118c660008261189a565b6001810190506118b3565b5050565b601f821115611916576118e7816117ac565b6118f0846117c1565b810160208510156118ff578190505b61191361190b856117c1565b8301826118b2565b50505b505050565b600082821c905092915050565b60006119396000198460080261191b565b1980831691505092915050565b60006119528383611928565b9150826002028217905092915050565b61196b82611550565b67ffffffffffffffff8111156119845761198361130f565b5b61198e825461177b565b6119998282856118d5565b600060209050601f8311600181146119cc57600084156119ba578287015190505b6119c48582611946565b865550611a2c565b601f1984166119da866117ac565b60005b82811015611a02578489015182556001820191506020850194506020810190506119dd565b86831015611a1f5784890151611a1b601f891682611928565b8355505b6001600288020188555050505b50505050505056fea2646970667358221220a853051a4c66e63c07f6ac2eca537aa5bd1d2584db2742598820864433b0963164736f6c63430008110033",
  "linkReferences": {},
  "deployedLinkReferences": {}
}