{
    "_format": "hh-sol-artifact-1",
    "contractName": "TrustCalculation",
    "sourceName": "contracts/TrustCalculation.sol",
    "abi": [
        {
            "anonymous": false,
            "inputs": [
                {
                    "indexed": false,
                    "internalType": "uint256",
                    "name": "alphaNew",
                    "type": "uint256"
                },
                {
                    "indexed": false,
                    "internalType": "uint256",
                    "name": "betaNew",
                    "type": "uint256"
                },
                {
                    "indexed": false,
                    "internalType": "uint256",
                    "name": "satisfaction",
                    "type": "uint256"
                },
                {
                    "indexed": false,
                    "internalType": "uint256",
                    "name": "trustFactor",
                    "type": "uint256"
                }
            ],
            "name": "LogCalculation",
            "type": "event"
        },
        {
            "inputs": [
                {
                    "internalType": "uint256",
                    "name": "deviceId",
                    "type": "uint256"
                },
                {
                    "internalType": "uint256",
                    "name": "latency",
                    "type": "uint256"
                },
                {
                    "internalType": "uint256",
                    "name": "responseTime",
                    "type": "uint256"
                },
                {
                    "internalType": "uint256",
                    "name": "packetDeliveryRatio",
                    "type": "uint256"
                },
                {
                    "internalType": "uint256",
                    "name": "satisfaction",
                    "type": "uint256"
                }
            ],
            "name": "calculateTrustScore",
            "outputs": [],
            "stateMutability": "nonpayable",
            "type": "function"
        },
        {
            "inputs": [
                {
                    "internalType": "uint256",
                    "name": "",
                    "type": "uint256"
                }
            ],
            "name": "deviceTrustMapping",
            "outputs": [
                {
                    "internalType": "uint256",
                    "name": "alpha",
                    "type": "uint256"
                },
                {
                    "internalType": "uint256",
                    "name": "beta",
                    "type": "uint256"
                }
            ],
            "stateMutability": "view",
            "type": "function"
        },
        {
            "inputs": [
                {
                    "internalType": "uint256",
                    "name": "deviceId",
                    "type": "uint256"
                }
            ],
            "name": "getTrustScore",
            "outputs": [
                {
                    "internalType": "uint256",
                    "name": "",
                    "type": "uint256"
                }
            ],
            "stateMutability": "view",
            "type": "function"
        }
    ],
    "bytecode": "0x608060405234801561001057600080fd5b50610a38806100206000396000f3fe608060405234801561001057600080fd5b50600436106100415760003560e01c80633934abde14610046578063653ee7001461006257806383f3d44814610093575b600080fd5b610060600480360381019061005b919061055c565b6100c3565b005b61007c600480360381019061007791906105d7565b61040f565b60405161008a929190610613565b60405180910390f35b6100ad60048036038101906100a891906105d7565b610433565b6040516100ba919061063c565b60405180910390f35b6000670de0b6b3a7640000905060008214806100df5750600182145b61011e576040517f08c379a0000000000000000000000000000000000000000000000000000000008152600401610115906106b4565b60405180910390fd5b60008160038561012e9190610732565b60038761013b9190610732565b6003896101489190610732565b6101529190610763565b61015c9190610763565b6101669190610797565b905060027fffffffffffffffffffffffffffffffffffffffffffffffffffffffffffffffff6101959190610732565b8111156101d7576040517f08c379a00000000000000000000000000000000000000000000000000000000081526004016101ce90610825565b60405180910390fd5b60027fffffffffffffffffffffffffffffffffffffffffffffffffffffffffffffffff6102049190610732565b60008089815260200190815260200160002060000154111561025b576040517f08c379a000000000000000000000000000000000000000000000000000000000815260040161025290610891565b60405180910390fd5b60027fffffffffffffffffffffffffffffffffffffffffffffffffffffffffffffffff6102889190610732565b6000808981526020019081526020016000206001015411156102df576040517f08c379a00000000000000000000000000000000000000000000000000000000081526004016102d6906108fd565b60405180910390fd5b60006003826002866102f19190610797565b60026000808d8152602001908152602001600020600001546103139190610797565b61031d9190610763565b6103279190610763565b6103319190610732565b905060006003836002876001610347919061091d565b6103519190610797565b60026000808e8152602001908152602001600020600101546103739190610797565b61037d9190610763565b6103879190610763565b6103919190610732565b90507fc413040e2931ac37c7af8b111dff4afb503f5e4ab5a0457c4605d95de2eea293828287866040516103c89493929190610951565b60405180910390a1816000808b815260200190815260200160002060000181905550806000808b815260200190815260200160002060010181905550505050505050505050565b60006020528060005260406000206000915090508060000154908060010154905082565b6000806000808481526020019081526020016000206000015490506000806000858152602001908152602001600020600101549050600081836104769190610763565b036104865760329250505061051c565b7fffffffffffffffffffffffffffffffffffffffffffffffffffffffffffffffff81836104b39190610763565b11156104f4576040517f08c379a00000000000000000000000000000000000000000000000000000000081526004016104eb906109e2565b60405180910390fd5b80826105009190610763565b60648361050d9190610797565b6105179190610732565b925050505b919050565b600080fd5b6000819050919050565b61053981610526565b811461054457600080fd5b50565b60008135905061055681610530565b92915050565b600080600080600060a0868803121561057857610577610521565b5b600061058688828901610547565b955050602061059788828901610547565b94505060406105a888828901610547565b93505060606105b988828901610547565b92505060806105ca88828901610547565b9150509295509295909350565b6000602082840312156105ed576105ec610521565b5b60006105fb84828501610547565b91505092915050565b61060d81610526565b82525050565b60006040820190506106286000830185610604565b6106356020830184610604565b9392505050565b60006020820190506106516000830184610604565b92915050565b600082825260208201905092915050565b7f496e76616c696420736174697366616374696f6e2076616c7565000000000000600082015250565b600061069e601a83610657565b91506106a982610668565b602082019050919050565b600060208201905081810360008301526106cd81610691565b9050919050565b7f4e487b7100000000000000000000000000000000000000000000000000000000600052601260045260246000fd5b7f4e487b7100000000000000000000000000000000000000000000000000000000600052601160045260246000fd5b600061073d82610526565b915061074883610526565b925082610758576107576106d4565b5b828204905092915050565b600061076e82610526565b915061077983610526565b925082820190508082111561079157610790610703565b5b92915050565b60006107a282610526565b91506107ad83610526565b92508282026107bb81610526565b915082820484148315176107d2576107d1610703565b5b5092915050565b7f547275737420666163746f72206f766572666c6f770000000000000000000000600082015250565b600061080f601583610657565b915061081a826107d9565b602082019050919050565b6000602082019050818103600083015261083e81610802565b9050919050565b7f416c706861206f766572666c6f77000000000000000000000000000000000000600082015250565b600061087b600e83610657565b915061088682610845565b602082019050919050565b600060208201905081810360008301526108aa8161086e565b9050919050565b7f42657461206f766572666c6f7700000000000000000000000000000000000000600082015250565b60006108e7600d83610657565b91506108f2826108b1565b602082019050919050565b60006020820190508181036000830152610916816108da565b9050919050565b600061092882610526565b915061093383610526565b925082820390508181111561094b5761094a610703565b5b92915050565b60006080820190506109666000830187610604565b6109736020830186610604565b6109806040830185610604565b61098d6060830184610604565b95945050505050565b7f416c706861202b2042657461206f766572666c6f770000000000000000000000600082015250565b60006109cc601583610657565b91506109d782610996565b602082019050919050565b600060208201905081810360008301526109fb816109bf565b905091905056fea264697066735822122010b5b8a4efe0849ba6f793199b8e6a819be555089985faf7cdb08f336285e20464736f6c63430008110033",
    "linkReferences": {},
    "deployedLinkReferences": {}
}